:100000000C94D0020C9408030C9408030C9408037D
:100010000C9408030C9408030C9408030C94080334
:100020000C9408030C9408030C9416220C94EA22F6
:100030000C94361C0C9408030C9408030C940803CD
:100040000C9408030C9408030C9408030C94080304
:100050000C9408030C94BD1C0C9408030C94080326
:100060000C9408030C9408030C9408030C940803E4
:100070000C9408030C9408030C9408030C940803D4
:100080000C9408030C9408030C9408030C940803C4
:100090000C9408030C9408030C9408030C940803B4
:1000A0000C9408030C9408030C94080329001E0008
:1000B0001F0020002100220023002400250026002C
:1000C00027002D002E0035002A00AE002B00140062
:1000D0001A000800150017001C0018000C00120080
:1000E00013002F0030000000000000003900040061
:1000F0001600070009000A000B000D000E000F009B
:1001000033003400320028004C004B00E100640052
:100110001D001B000600190005001100100036002C
:1001200037003800E50052004E000000E000E30018
:10013000E2002C00E600E700E400500051004F0010
:1001400000000000000000000000000001000100AD
:100150000100010001000100010001000100010097
:100160000100010001000100010001000100010087
:100170000100010001000100010001000100010077
:10018000010001000100000000000000010001006A
:100190000100010001000100010001000100010057
:1001A0000100010001000100010001000100010047
:1001B0000100010001000100010001000100010037
:1001C0000100010001000100010000000100010028
:1001D0000100010001000100010001000100010017
:1001E000000000000000000000000000010001000D
:1001F00001000100010001000100010001000100F7
:1002000001000100010001000100010001000100E6
:1002100001000100010001000100010001000100D6
:1002200001000100010000000000000001000100C9
:1002300001000100010001000100010001000100B6
:1002400001000100010001000100010001000100A6
:100250000100010001000100010001000100010096
:100260000100010001000100010000000100010087
:100270000100010001000100010001000100010076
:10028000000000000000000000000000010001006C
:100290000100010001000100010001000100010056
:1002A0000100010001000100010001000100010046
:1002B0000100010001000100010001000100010036
:1002C0000100010001000000000000000100010029
:1002D0000100010001000100010001000100010016
:1002E0000100010001000100010001000100010006
:1002F00001000100010001000100010001000100F6
:1003000001000100010001000100000001000100E6
:1003100001000100010001000100010001000100D5
:1003200000000000000000000000000000000000CD
:10033000000000002A2B2800000000000000000040
:100340000000000000000029000000002C1E3420E6
:10035000212224342627252E362D3738271E1F200C
:100360002122232425263333362E37381F04050651
:100370000708090A0B0C0D0E0F1011121314151695
:100380001718191A1B1C1D2F3130232D3504050693
:100390000708090A0B0C0D0E0F1011121314151675
:1003A0001718191A1B1C1D2F3130354C0000000086
:1003B000000000000000000000000000000000003D
:1003C000000000000000000000000000000000002D
:1003D0007E0F00D4FFFFFFC7000000780C034C0025
:1003E00057002D003600370000002A034C00610042
:1003F0006E0065007700610072006500200050000B
:10040000650072006900700068006500720061009C
:100410006C00730000000403090409025B0003017F
:1004200000A0FA09040000010301010009211101E3
:1004300000012240000705810308000109040100B2
:10044000020300000009211101000122220007051A
:1004500082032000010705030320000109040200B4
:10046000010300000009211101000122B600070567
:1004700084032000011201000200000008504C9883
:10048000990100010200010660FF0961A1010962F2
:10049000150026FF009520750881020963150026C6
:1004A000FF00952075089102C005010902A1018590
:1004B000020901A100050919012908150025019566
:1004C00008750181020501093009311581257F95E3
:1004D000027508810609381581257F950175088107
:1004E00006050C0A38021581257F950175088106DD
:1004F000C0C005010980A101850319012AB70015B3
:100500000126B700950175108100C0050C0901A1F5
:1005100001850419012AA002150126A00295017582
:10052000108100C005010906A1018506050719E033
:1005300029E71500250195087501810205071900B5
:1005400029EF1500250195F07501810205081901B3
:100550002905950575019102950175039101C00565
:10056000010906A101050719E029E71500250195F4
:100570000875018102950175088101050719002997
:10058000FF150026FF009506750881000508190172
:100590002905950575019102950175039101C0002A
:1005A00011241FBECFEFDAE0DEBFCDBF04B603FEDD
:1005B00018C08091D1029091D202A091D302B09143
:1005C000D4028730904BA740B04B59F41092D1021F
:1005D0001092D2021092D3021092D402E0E0F8E31B
:1005E000099511E0A0E0B1E0EEEEFAE402C005905A
:1005F0000D92AE3AB107D9F722E0AEEAB1E001C000
:100600001D92A13DB207E1F70E94C7120C944C2540
:100610000C940000CF93DF93D82FC62F0E945D1952
:10062000882341F0D11106C089EAC11101C08AEACC
:100630000E94420680E0DF91CF91089581E0089505
:1006400081E008950E942003089508950E942503E3
:100650000895A5E0B0E0EFE2F3E00C94C1244983F3
:100660005A833091B10189819A81311119C0662371
:1006700099F0222389F00E94C509182F682F8981DB
:100680009A810E94A20969817A81812F0E949F1814
:100690002596E3E00C94DD240E94B309182FF3CFD4
:1006A0000E94C50969817A81F1CFFC01262F408122
:1006B00051816281738184810E942903089581E0C0
:1006C0000895CF93DF93EC0160E00E945503BE01D3
:1006D0000E942603DF91CF910895E1E0F0E0DF0171
:1006E00002C0AA0FBB1F6A95E2F7BD01DF0102C07D
:1006F000AA0FBB1F4A95E2F76A2B01C0EE0F2A959D
:10070000EAF7962F9823961302C08E2B0895E09552
:100710008E230895242F462F682F8091D0010E94A8
:100720006D030E94020908950E94721108950E94AB
:100730007611089508950E949F080E949A032FEF52
:1007400084E39CE0215080409040E1F700C000002D
:1007500008950E949B030E94E11C08950E949B0340
:100760000E94051D08950F931F93CF93DF938C0173
:1007700061E00E945503EC01B8010E94A2158111AD
:1007800006C080E0DF91CF911F910F910895B801CD
:10079000CE010E9422038823A1F3B801CE010E945A
:1007A000671A882371F3B801CE010E94911688233D
:1007B00041F3B801CE010E94D919882311F3F80141
:1007C0008281882361F0CA35FDE5DF0701F158F425
:1007D000C115ECE5DE0791F0CE3DDC4591F0C80196
:1007E0000E941E03CFCFCC358DE5D80769F090F07D
:1007F000C73ADD45A1F70E94AE03C3CF0E94A9030B
:10080000C0CF0E947E0EF7CF0E94B80DE8CF0E94A5
:10081000C20DE5CF0E94C60DE2CF0E94121C0E94BD
:10082000F10408950E94F5040E94171C0895B0E099
:10083000A0E0EDE1F4E00C94BD24E82FF0E0E45DED
:10084000FC4FD490282F26952695269530E0F90167
:10085000E453FC4F0491877010E0082E02C01595F8
:1008600007950A94E2F701701127F901E454FC4F4F
:10087000E490F12C082E02C0F594E7940A94E2F774
:1008800091E0E922FF24F901E455FC4FC491D0E046
:1008900002C0D595C7958A95E2F7C170DD2701158D
:1008A000110519F081EE0E944005E114F10419F0E0
:1008B00086EE0E9440058D2D0E944206E114F1044F
:1008C00019F086EE0E94D1050115110519F081EE8F
:1008D0000E94D105CD2B19F08CE20E944206CDB7C3
:1008E000DEB7E7E00C94D924EF92FF920F931F93A9
:1008F000CF93DF93EC01162F0AE08881882309F457
:1009000054C0813009F04EC08981813099F47E0154
:1009100022E0E20EF11C8A810E944206E701219644
:10092000812F815050F3EFE9FFE03197F1F700C0DC
:100930000000F7CF823041F47E0182E0E80EF11C26
:100940008A810E944005EACF833041F47E01E2E0D3
:10095000EE0EF11C8A810E94D105E0CF843011F0A7
:100960002196DDCF2A81229690E080E0AE014F5F94
:100970005F4F2053330B2A30310548F0019778F24E
:10098000EFE9FFE03197F1F700C00000F7CF089FD3
:10099000B001099F700D1124C901860F971F29818D
:1009A000EA01E4CF0E941704BACFCDB7DEB7E6E084
:1009B0000C94DA2460E00E947404089508950E9463
:1009C000DE04089581E008950E94E20408950895E8
:1009D000CF93C82F0E94DF048C2F0E94E404CF9194
:1009E000089580E00E94E80408950E94C31A0E94BE
:1009F000E80408950E94C31A9091B001981721F05D
:100A00008093B0010E94E8040895ABE0B0E0EBE011
:100A1000F5E00C94C2244F83588769877A878B87C7
:100A200061110E94030D1E821D8285E0FE01379632
:100A3000DE01119601900D928A95E1F78C819D81DE
:100A4000892B61F449815A816B817C818D819E81E2
:100A50000E942C0C2B96E2E00C94DE2489819A8172
:100A600089238F3F79F3CE0101960E945F038111A4
:100A7000E9CFF0CFFC01808191810E94F2090895B5
:100A8000CF93C82F8823C9F08238C9F40E94C31AB3
:100A900081FD13C089E30E94BB0C0E94240D2FEF3F
:100AA00081EE94E0215080409040E1F700C00000CA
:100AB00089E30E94C30C0E94240DCF9108958338CE
:100AC000A1F40E94C31A80FDF8CF83E50E94BB0CFD
:100AD0000E94240D2FEF81EE94E021508040904041
:100AE000E1F700C0000083E5E4CF8438A1F40E9460
:100AF000C31A82FDE2CF87E40E94BB0C0E94240D42
:100B00002FEF81EE94E0215080409040E1F700C04B
:100B1000000087E4CECF8CEF8C0F813A90F46C2FDD
:100B200080910001909101010E94381B882329F0D7
:100B30008C2F0E94C30C0E94240D8C2F0E94BB0C92
:100B4000BACF80E28C0F883048F4C77081E001C0D2
:100B5000880FCA95EAF70E94E60CADCFEBE5EC0FE3
:100B6000E33040F4F0E0EB5BFE4F808190E00E94C8
:100B7000F81AA3CFE8E5EC0FE73150F4F0E0EE0F00
:100B8000FF1FE95EFE4F808191810E940E1B95CF71
:100B9000C03F08F492CF8C2F0E944B130E941E146A
:100BA0008CCF882309F455C0823879F40E94C31A87
:100BB00081FF4FC089E30E94BB0C0E94240D89E392
:100BC0000E94C30C0E94240D0895833859F40E949A
:100BD000C31A80FF3EC083E50E94BB0C0E94240D17
:100BE00083E5EECF843859F40E94C31A82FF31C0E6
:100BF00087E40E94BB0C0E94240D87E4E1CF9CEFA8
:100C0000980F913AE8F290E2980F983050F487707C
:100C100091E001C0990F8A95EAF7892F0E94EC0CA8
:100C2000D1CF9BE5980F933028F490E080E00E94AC
:100C3000F81A089598E5980F973128F490E080E02D
:100C40000E940E1B0895803F20F00E94A5130E9471
:100C50001E1408951F93CF93DF93182FEB010E946A
:100C60004005209739F4812F0E94D105DF91CF9163
:100C70001F9108958FE99FE00197F1F700C00000F0
:100C80002197EFCF70E060E0893311F460E570E008
:100C90000E942A060895882321F00E94E60C0E94F3
:100CA000240D0895882321F00E94EC0C0E94240D4D
:100CB0000895B0E0A0E0EFE5F6E00C94BB246C01F1
:100CC000D62FC72FFC011281F580F2949FE0F92204
:100CD0000E94DC0CE82E8823B9F0E12E1123A1F04C
:100CE0008C2F807F803421F080E28D0F8830D0F00F
:100CF0008091AB0282FF16C082E00E94870D0E94A5
:100D0000DC0C91E0E82EE926BC2EB2948FE0B822EC
:100D1000FBE0FB1508F468C0EB2DF0E0E25BFA4D58
:100D20000C94A524E12CF0CF0C2F0F70C07F11F094
:100D30000295007F112399F0002359F080E28D0F76
:100D4000883010F0D11107C0802F0E94E60C0E945D
:100D5000240D8D2F41C0802F0E94F60CF8CF8D2FCF
:100D60000E94D105002309F43FC080E28D0F883036
:100D700010F0D11104C0802F0E94EC0C03C0802F12
:100D80000E94FC0C0E94240D2FC00C2F0F70C07FFE
:100D9000C03211F00295007FDD2381F0D13009F4DB
:100DA00063C0112309F46DC0FF2009F463C0F6018C
:100DB000858180FFCECF8F7085835CC08091AB0230
:100DC00082FD33C0112359F0002329F0802F0E94A7
:100DD000E60C0E94240D80E00E94400505C080E0E2
:100DE0000E94D1050111C7CFEB2DE850FF0B3497BE
:100DF00020F40E94C31A0E94E804EE2089F00E94A9
:100E0000D80C80FD0DC0F60112820E94D20C0E9407
:100E10001609C6010E945F080E94D20C0E94220996
:100E2000CDB7DEB7E9E00C94D724112389F0F11097
:100E300006C00E94060D802B0E944B06D5CF21E0F4
:100E4000F212F7CF0E94060D802B0E940D0DCCCF21
:100E5000F11006C00E941A0D802F0E945206C4CFC6
:100E600031E0F31609F2F6CF112331F085E08F154A
:100E700008F4BACF802FE0CF94E09F1508F4B4CFE8
:100E8000EBCFFF2049F3D93349F4FFEF27EE33E0EE
:100E9000F15020403040E1F700C000008D2F0E944B
:100EA000D105A2CF8C2F86958695837069F081300D
:100EB00009F09ACF8D2F9C2F9370111102C090E0F2
:100EC00080E00E940E1B90CF8D2F9C2F93701111EC
:100ED00002C090E080E00E94F81A86CF8D2F112387
:100EE00029F00E944B130E941E147ECF0E94A5136E
:100EF000FACF8C2F837079F5111176CF4D2F429553
:100F000046954770440F440F8D2F8F70042E01C0FB
:100F1000880F0A94EAF72D2F2071D4FF07C02FE025
:100F200030E001C0220F4A95EAF72095C695C69594
:100F3000C370822BC23049F058F4C13019F00E94BE
:100F4000F00852CF0E94EA084FCF0E94F6084CCF1B
:100F50000E94E70849CF8695112311F08C2F8170EC
:100F6000882309F441CF4D2F429546954770440F91
:100F7000440F8D2F8F70042E01C0880F0A94EAF75A
:100F80002D2F2071D4FF07C02FE030E001C0220FC9
:100F90004A95EAF72095C695C695C370822BC23054
:100FA00049F058F4C13019F00E9441091DCF0E9448
:100FB0003B091ACF0E94470917CF0E94020914CF9C
:100FC000CF70112329F08C2F0E9416098D2F34CF5A
:100FD0008D2F0E9452068C2F0E94220905CFD23FEE
:100FE00051F160F4D03FB9F0D13F81F0112309F401
:100FF00049C0F110AECE8C2F8F7121C0D33F11F1BB
:10100000D43FA1F78091AB0282FD26C08C2F8F7157
:10101000112311F314C0112349F084E08F1508F453
:10102000E3CE8C2F8F710E942F09DECE95E09F15A5
:1010300008F4DACEF6CF8C2F8F711111CDCF0E942C
:101040001609D2CE112329F08C2F8F710E940D0921
:10105000CBCE0E940909C8CE112349F0CF718C2F45
:101060000E94160963E08C2F0E94690DBDCE81E0BD
:101070000E94870DE1E0EF1508F0B6CE82E00E94F5
:10108000870DB2CEF110FFCE8C2F8F71A5CF0F93AD
:101090001F93CF93DF93EC01688179818A810E944D
:1010A000FD098C010E944D090E94E608B801CE019D
:1010B0000E945906DF91CF911F910F910895CF9310
:1010C000DF93EC018B819C81892B29F088819981A8
:1010D00089238F3F51F4DF91CF910895CE010E9473
:1010E0004708CE010E946103F6CFCE010E94B303F0
:1010F0008111F4CF0E94DC0C882369F38A81882354
:1011000051F38091AB0282FFE6CF82E00E94870D0F
:10111000E2CF90E080E00E94F81A90E080E00E9428
:101120000E1B0E94030D0E94240D0E942F150E9489
:101130001E1408950E94CB0C0E94890808950E94F5
:10114000F30C0E949A08089592959F70963091F042
:1011500058F4925F9F70923058F4803F19F030F449
:10116000883E30F481E008959A5FF4CF843FD1F354
:1011700080E00895883EB0F3813FD1F7F3CFFC01C2
:10118000808191810E94F2090E94A4080895A5E03F
:10119000B0E0EDECF8E00C94C2242596E2E00C946B
:1011A000DE24A6E0B0E0E7EDF8E00C94C224269639
:1011B000E2E00C94DE2408950E94DB0808950E946A
:1011C000DC088093D1010E948908089508950E9447
:1011D000DF0808959091D101892B0E94DF080895BE
:1011E0009091D10189230E94DF0808959091D10147
:1011F00089270E94DF0808950E94DB0808950E9455
:10120000FC0808950E94FF088093D0010E9489087D
:10121000089580E00E940209089591E001C0990FAD
:101220008A95EAF7892F0E940209089521E030E0AB
:1012300001C0220F8A95EAF78091D001822B0E948B
:101240000209089521E030E001C0220F8A95EAF7F3
:1012500020958091D00182230E940209089521E007
:1012600030E001C0220F8A95EAF78091D0018227F1
:101270000E94020908959091D001892B0E940209D1
:1012800008959091D00189230E94020908959091B8
:10129000D00189270E94020908950895262F2770FA
:1012A00091E001C0990F2A95EAF723E076956795BA
:1012B0002A95E1F7FB01EE0FFF1FE60FF71FE40F82
:1012C000F51F50E040E0682F70E08191DF01119739
:1012D0009B01042E02C0369527950A94E2F72170EF
:1012E00021952827292328272C934F5F5F4F4330D0
:1012F000510559F70895A82FA77023E09695879573
:101300002A95E1F7FC01EE0FFF1FE80FF91FE60F2A
:10131000F71F50E040E080E0219130E00A2E02C04B
:10132000369527950A94E2F721703327042E01C0E1
:10133000220F0A94EAF7822B4F5F5F4F433051052B
:1013400059F70895262F953068F4803158F430E12C
:10135000939FB0011124680F711D42EB51E0822F61
:101360000E944E090895953070F4803160F440E198
:10137000949F9001112462EB71E0820F932F911DD5
:101380000E947B09089580E00895CF92DF92FF923A
:101390000F931F93CF93DF936C010091D001809145
:1013A000D101082BC7E0D0E010E0FC2EC8010C2EC4
:1013B00002C0959587950A94E2F780FD0CC02197AD
:1013C000A0F7F12C8F2DDF91CF911F910F91FF90FE
:1013D000DF90CF900895B6018C2F0E945B1001978B
:1013E00071F3F0CFCF93DF93EC010E94C509BE01EA
:1013F0000E945B10DF91CF9108951F93CF93DF93ED
:10140000EB019091B101992339F0CB010E94F209CF
:10141000DF91CF911F910895882369F0CB010E943D
:10142000C509182F682FCE010E94A209BE01812F85
:101430000E945B10EDCFCB010E94B309182FF6CFAD
:101440001F93CF93DF93C091D20116E08091D30117
:101450008C1304C0DF91CF911F910895D0E01C9FA1
:10146000F0011D9FF00D1124EC52FE4F408151817F
:1014700062817381848195810E94D1082196C77011
:10148000E5CF4091040250910502609106027091EF
:10149000070280910802909109020E94D1080895E4
:1014A0001F93CF93DF9380910902807F09F049C099
:1014B00080910602882309F444C08091D201C09132
:1014C000D3016091040270910502A0910702B091CE
:1014D0000802D62FD72316E0C81799F190E010978D
:1014E00011F0DF3F19F401968770F6CF189F900135
:1014F000199F300D1124F901EC52FE4F4181471321
:10150000F2CF40814613EFCF42814111ECCF4381AE
:1015100054814A1B5B0B483C510528F78091090216
:101520008F70806180930902F901E752FE4F80813C
:101530008F708061808384E092E00E945F080E9447
:10154000200ADF91CF911F910895A1E1B0E0EBEA6D
:10155000FAE00C94BA248C0185E0F801DE011D96B6
:1015600001900D928A95E1F7F801E28084E0C82E9F
:1015700082E0D82E60910702709108026115710512
:1015800009F44EC19091040220910502892F822313
:101590008F3F09F445C140815181A380B480F09010
:1015A0000602F501E61BF70BFF2009F4EAC0809163
:1015B0000902382F307FE83CF10508F0A3C0311153
:1015C0006DC0FE2C251316C0941314C0E11012C078
:1015D0008F708061809309020E94410AC6010E94B7
:1015E0005F0880910902F80185838F2D6196EAE0FA
:1015F0000C94D624A114B10429F0842F85238F3FA5
:1016000009F027C180E0F82FF170DF2E80FF3CC089
:101610008091D2012091D30136E0821315C04D870D
:101620005E878D859E850E94F209292F22952F7055
:101630002230F0F0243018F59F70F1F0F801958118
:10164000907FD1F4D12C1EC090E0389FF001399FDB
:10165000F00D1124EC52FE4F6181651306C06081CC
:10166000641303C06281E6120FC001968770D5CF64
:101670009F7011F0882331F3805E883018F3C80121
:101680000E945F08FD2CB1CFEE2009F4AECF80910F
:101690000902816080930902F12CA7CF251306C0AF
:1016A000941304C0F801EE2009F487C0C8010E9419
:1016B000BF08882319F1EE2009F1809109028032D8
:1016C00070F0209104023091050238872F8319862B
:1016D000BB86AA868C87CE0107960E945F0886E0AB
:1016E000F801A4E0B2E001900D928A95E1F70E9422
:1016F000500A0E94410AFF24F39477CFC8010E9448
:101700005F08F9CF311113C07A2DB98AA88A6E2DDE
:1017100089890E94C70884E092E00E945F0886E001
:10172000F60111928A95E9F70E94410AB5CF251377
:101730000FC094130DC0E1100BC0F8018583C801E0
:101740000E945F0886E0F60111928A95E9F74DCF75
:10175000C8010E94BF08882389F2EE2079F28091A7
:101760000902803208F4BBCF2091040230910502B7
:101770003A8329831B82BD82AC828E83CE0101967F
:10178000ACCFE83CF10508F03EC0FE2CEE2009F499
:10179000B5CF25132AC0941328C08091090280FD7B
:1017A0001BC0982F907FC1F0F8018583903F31F0E6
:1017B000982F907F905F8F70892B8583C8010E943E
:1017C0005F0886E0F801A4E0B2E001900D928A95EE
:1017D000E1F70E94410A09CF86E0F801A4E0B2E0F7
:1017E00001900D928A95E1F700CFC8010E94BF08D1
:1017F000811175CF80910902816080930902C8012F
:101800000E945F08F2CE7A2DB98AA88A6E2D898946
:101810000E94C70886E0F60111928A95E9F7D9CFB0
:10182000EE2009F46BCFC8010E94BF08F82E882370
:1018300009F464CF86E0F801A4E0B2E001900D92D3
:101840008A95E1F784E092E00E943A050E94500AEE
:10185000C0CF81E08E25D7CEACE0B0E0E2E3FCE083
:101860000C94C1244F83588769877A878B879C871C
:10187000CE0107960E94A50A882369F08A859B8578
:10188000892B39F04F815885842F85238F3F09F0AC
:101890006BC016E05FC086E0FE013796DE01119650
:1018A00001900D928A95E1F78A859B85892B89F3B2
:1018B0008F81988589238F3F61F32091D30130E098
:1018C000C9010196877099274091D20148171906DE
:1018D00071F40E949F081092D3011092D20186E009
:1018E000E4E0F2E0DF011D928A95E9F7D2CF96E0BD
:1018F000929FD001939FB00D1124AC52BE4FFE01B8
:10190000319601900D929A95E1F78093D3010E9450
:10191000200ABFCF819FC00111248C529E4F0E948C
:10192000A50A8823E9F0E091D2011E9FF00111245D
:10193000EC52FE4F40815181628173818481958197
:101940000E94D1088091D20190E00196877099277A
:101950008093D2018091D2019091D3018913DACF83
:101960002C96E3E00C94DD2469857A858B859C8533
:101970000E94D1088ECF682F8091000190910101C3
:101980000E94B81B0895682F809100019091010179
:101990000E94C61B089580910001909101010E9450
:1019A000D41B089580912A02859585958595089583
:1019B00080912A028770089590912A02977081E0A1
:1019C00009F480E0089580914D02089590914D02B0
:1019D000892B80934D020895809590914D02982314
:1019E00090934D02089510924D02089590914C02EB
:1019F000892B80934C020895809590914C029823F6
:101A000090934C02089510924C02089580912B02FD
:101A1000089508950E94090D08959091AB0292FFD8
:101A200008C090912B02981721F080932B020E94FE
:101A30000A0D089580912B02882329F010922B0221
:101A400080E00E940A0D0895CF93DF93E09100019A
:101A5000F091010180914D028083E0910001F091AD
:101A60000101808190914C02892B808390912B02FF
:101A7000992381F0E0910001F09101018081892B8F
:101A8000808380910001909101010E94241B8111AB
:101A90000E941A0DC0910001D091010140E250E076
:101AA0006AE072E0CE010E94FD24892B59F080E2A9
:101AB000FE01AAE0B2E001900D928A95E1F7CE0115
:101AC0000E94D01ADF91CF91089508950E94650D6C
:101AD00008959091AB0292FF11C098E0899F900108
:101AE0001124622B60932A020E94160980912A0217
:101AF0008595859585950E94660D08950E94160925
:101B0000089510922A0280E00E94660D0895909137
:101B10002A028095892380932A02282F277091F426
:101B2000282F082E000C330B9217130659F09091B2
:101B3000AB0292FF07C08595859585950E94220985
:101B40000E94810D08959091AB0292FB222720F90B
:101B5000281769F080FB92F99093AB028091AA025A
:101B60009091AB020E94F50D82E00E94870D0895CE
:101B70008091AB0282FB882780F991E089270E943F
:101B8000A30D089581E00E94A30D089580E00E94B6
:101B9000A30D08956FEF7FEF90E080E00E9436255F
:101BA000089590E080E00E941225883E9E4F19F42F
:101BB0000E943D15089580E0089582E090E00E9423
:101BC0000A25089583E090E00E940A250895CF93A6
:101BD00084E090E00E940A25C82F82E290E00E94F3
:101BE0000A25982F8C2FCF910895CF93C92F682F56
:101BF00084E090E00E9418256C2F82E290E00E9421
:101C00001825CF910895AB01BC018FE090E00E94B0
:101C10002A250895AB01BC0183E190E00E942A25AA
:101C2000089560E070E0CB010E940A0E089560E024
:101C300070E0CB010E94030E0E94110E089568EE21
:101C40007EEF90E080E00E94362560E082E090E048
:101C50000E94182560E083E090E00E941825109211
:101C6000D10160E084E090E00E94182564E082E207
:101C700090E00E94182560E085E090E00E94182521
:101C800060E086E090E00E9418256FEF87E090E02A
:101C90000E94182540E050E0BA0188E090E00E94E0
:101CA0002A2560E08DE090E00E94182540E050E099
:101CB000BA0188E190E00E942A2560E087E190E087
:101CC0000E94182540E050E0BA018CE190E00E94AB
:101CD0002A2570E060E080E290E00E94362540E036
:101CE00050E0BA0188E190E00E942A2580E00E943D
:101CF00056150E9485150E94170E08950E941F0E0A
:101D00000895682F8EE090E00E94182508950E94A3
:101D1000A21C6093600270936102809362029093B0
:101D2000630260935C0270935D0280935E02909305
:101D30005F0208950E94A21C60936002709361028A
:101D400080936202909363026093580270935902E9
:101D500080935A0290935B020895089508950E941B
:101D6000AE0E089508950E94B20E08958AE391E19F
:101D70000E94B91A0E94AD0E0E94AF0E089581E034
:101D800008950E94BF0E0895089508950E94C40EFC
:101D90000E94C50E08950E9456110E94E7040895FE
:101DA0000E948D1C0E9495150E942E120E94CB0E3F
:101DB0000E945F190E94B30E0895AAE0B0E0E3EE1E
:101DC000FEE00C94B7240E944412A82E81110E94B8
:101DD000870E5EE4852E52E0952E10E000E0702E16
:101DE000802F0E9479116C01F401E190F1904F0174
:101DF000E816F90609F444C08091640281FD0E944E
:101E00008211C7018C259D25B12CEE24E394F12C81
:101E10009C012E213F21232B69F10E94C10E8823B2
:101E2000B1F0BE827F82CE20DF2081E0C114D104D8
:101E300009F480E088870E94961C8160782F9A8739
:101E400089874E815F8168858A850E940505000F1C
:101E5000111FF801E25BFD4F80819181E826F92690
:101E6000F182E08281E0A11001C080E02A96EDE0DD
:101E70000C94D324B394EE0CFF1CF0E1BF12C8CF36
:101E80000F5F1F4F0530110509F0A9CF8FEF898330
:101E90008A831B820E94961C8160782F9D838C838D
:101EA00049815A816B818D810E940505DBCF0E949B
:101EB000DD0E0E947C1981110E949A0E0E943A1434
:101EC0000E94FA040895CF93DF930E946010EC0102
:101ED000811521E5920708F042C0811530E593078E
:101EE00008F09DC0883E910530F5803E910508F0D0
:101EF00092C0883A910588F4853A910508F084C02B
:101F00008130910509F487C0009709F484C00497D3
:101F100008F081C0D0E0C0E07EC08F3B9105D0F7D3
:101F2000C85AD0E0CC0FDD1FC85BDE4F0990D881C6
:101F3000C02DD46470C08115904250F4C11581E069
:101F4000D80708F068C0C03FD10520F3D06563C052
:101F5000C11590E4D907F0F2DF70D06A5CC081153A
:101F600025E5920700F5811534E5930708F08BC04D
:101F7000811543E5940708F073C0C11582E5D807C1
:101F800008F469C0CE018370992721E030E002C0D7
:101F9000220F331F8A95E2F7C695C69580E2C89F47
:101FA000E001112454C0C11599E5D907A8F4C11561
:101FB00028E5D20708F06CC0C11536E5D30708F054
:101FC000A9CF8C2F0E94F710C82FD0E0DC2FCC2790
:101FD000CC27DF71D0621FC0C1154AE5D40708F4D1
:101FE0005CC0CE0190568115904208F093CF8D2FA2
:101FF0008F710E94F71090E0982F882788279F7193
:102000009C012C2BE901E6CFC55AD0E0CA58DE4F1F
:10201000C881D0E0D064CE01DF91CF910895E4E093
:1020200096958795EA95E1F783702C2F269526954E
:10203000237040E2249F90011124382B8C2F837051
:10204000C1E0D0E002C0CC0FDD1F8A95E2F7C22BC1
:10205000D32BDC68E0CFDC2FCC27C16FD06ADBCF7D
:102060008370992721E030E002C0220F331F8A9548
:10207000E2F7C695C69590E2C99FE0011124C22BF4
:10208000D32BDA68C8CFD82FCC27C46FD06AC3CF80
:10209000DC2FCC27C06FD06ABECF8C2F8F700E94F0
:1020A000F71034E0D695C7953A95E1F7CF709C2F9D
:1020B000EC01D069B0CF0E949F180E94630F089571
:1020C00082389105B1F1B0F48133910509F475C0FE
:1020D00048F48932910509F469C08A32910509F4FE
:1020E00073C008958533910509F459C0893391056A
:1020F00001F10895833E9105A9F138F4803E9105E0
:10210000F9F0823E910549F10895863E9105A9F1C5
:10211000873E9105C9F1843E910519F52091AB02E6
:1021200021FF1FC08091AA0284FD14C087EE90E0B9
:1021300008952091AA022370A1F080EE90E0089506
:102140002091AA0220FD47C03091AB0230FF09C0A8
:1021500024FF44C090E080E004C02091AA0222FD48
:10216000F7CF08952091AA0222FD3BC03091AB0227
:1021700030FDE3CF24FFF5CFEDCF2091AA0223FF5E
:10218000F0CF24FDE7CFD2CF2091AA0223FD2CC0AF
:102190003091AB0231FFEECF84EE90E008952091B4
:1021A000AA0225FFDECF89E290E008952091AA02DD
:1021B00025FFD7CF85E390E008952091AA0226FF5E
:1021C000D0CF8AE290E008952091AA0226FFC9CFDD
:1021D00081E390E0089589E390E0089583EE90E034
:1021E000089582EE90E0089586EE90E00895909133
:1021F000AA0292FF06C0282F28712830F9F4877FA1
:10220000846093FF06C0282F28712831F1F4877E5F
:1022100084612091AB0220FF06C0382F387138301E
:10222000D9F4877F816021FF06C0282F28712831CB
:10223000D1F4877E816194FD877E0895282F2471D3
:102240002430F9F68B7F8860DCCF282F247124316D
:1022500001F78B7E8861DDCF382F3171313019F76E
:102260008E7F8860E0CF282F2171213121F78E7E6B
:102270008861E1CF80E008950E94CA0D08950E9410
:1022800044128FE39CE90197F1F700C000000E941F
:10229000441280E00E94791180FF04C00E943C112A
:1022A0000E94E11C08950E943F1108950E94D10DE3
:1022B000811102C00E947E0E0E94DD0D8093640297
:1022C0000E94E70D9093AB028093AA020E945311E3
:1022D0000E94E20D0E94E7088091D0010E94FF0851
:1022E000089508950E947111089508950E9475112E
:1022F0000895E82FF0E0EE0FFF1FEA54FD4F8081B4
:1023000091810895089580EA8A95F1F7089500C0B3
:1023100008950E9483110895F894E82FE295EF70D4
:10232000F0E031A1282F2F7081E090E001C0880FEC
:102330002A95EAF7982F9095932391A392A1892B40
:1023400082A378940895CF93DF93C9E8D1E089916F
:102350008F3F11F00E948C1181E0CE38D807B9F779
:10236000C9E7D1E089918F3F11F00E948C1181E083
:10237000C938D807B9F7DF91CF910895AF92BF92CE
:10238000DF92EF92FF920F931F93CF93DF938C0115
:10239000D62EC62FD0E0CE0187579E4F7C01FC0180
:1023A00020812F3F09F44DC0F894E22FE295EF70A1
:1023B000F0E031A12F7081E090E001C0880F2A95F4
:1023C000EAF7932F982B91A392A18095892382A35A
:1023D00078940E948711E9E7F1E049E851E021E0B3
:1023E00030E0B12CA12C61916F3FA9F1A62FA295ED
:1023F000AF70B0E090968C9190E06F7002C09595B0
:1024000087956A95E2F780FD26C0C901A82AB92AF6
:10241000220F331F4E175F0731F7F70180818F3F7F
:1024200011F00E948C1161E0A114B10409F460E084
:102430008D2D0E948911CC0FDD1FC00FD11FB982D5
:10244000A882DF91CF911F910F91FF90EF90DF90C5
:10245000BF90AF90089590E080E0D8CF0E94A31184
:102460008AE0E6EBF2E0DF01982F1D929A95E9F7FA
:10247000ECEAF2E0DF011D928A95E9F785E00E941F
:1024800080120E9494030895AAE0B0E0EAE4F2E129
:102490000C94BF248E010F5F1F4F8AE0F801119248
:1024A0008A95E9F7F12C6F2DC8010E94BE11F394B3
:1024B000F5E0FF12F8CF4AE050E0B8018CEA92E074
:1024C0000E94FD24FF24F394009709F4F12C892B3A
:1024D00041F08AE0F801ACEAB2E001900D928A95F1
:1024E000E1F72F2D45E066EB72E08CEA92E00E9466
:1024F00081120E9497038F2D2A96E5E00C94DB242D
:102500000895FF920F931F93CF93DF93F82E092F17
:10251000162FD72FC42F222349F081E08093670222
:102520000E94961C909366028093650280916702D8
:102530008823A1F080916502909166020E94AE1CF2
:10254000059760F0EF2DF02FA12FBD2F90E080E0D8
:10255000D0E08C179D073CF010926702CDB7DEB734
:10256000E5E00C94DB24219131912D933D9301966C
:10257000F0CF0E94F01E0E94D00E0E94FD1E089512
:102580000E94021F0E94570F0E941C1F08950E9464
:102590002F1C0E94D61E0E94B60E0E94B9120E94E5
:1025A000C0120E94C60EFBCF80916E0280FF0DC04C
:1025B0006091070170E0660F771F6038710570F554
:1025C0006115710569F1862F089581FF07C060913B
:1025D000070184E0689FB0011124EFCF60910701EB
:1025E00082FD0AC080916D028823A9F02091060126
:1025F00060910701821710F088E0ECCF869FC00140
:10260000112433E0880F991F3A95E1F7622F70E0AB
:102610000E949124D2CF68E070E0D5CF8FE7089573
:1026200081E0089580916E0280FF0CC060910301EB
:1026300070E075956795759567956115710549F118
:10264000862F089581FF06C06091030170E07595A3
:102650006795F3CF6091030182FD0BC090916C02EE
:102660009923A1F06091020180910301961738F03F
:10267000682F70E06038710500F38FE70895899F37
:10268000C001112470E00E949124F4CF61E070E059
:10269000D7CF81E00895803F31F40E94D412819514
:1026A000809372020895813F19F40E94D412F8CFEA
:1026B000823F31F40E94D412819580937102089573
:1026C000833F19F40E94D412F8CF893F29F40E9465
:1026D00012138093730208958A3F21F40E9412130B
:1026E0008195F7CF8B3F31F40E941213819580932F
:1026F000740208958C3F19F40E941213F8CF9CE0E5
:10270000980F953070F4845F990B21E030E001C0A0
:10271000220F8A95EAF780917002822B80937002D3
:1027200008958D3F31F480916E02816080936E0236
:1027300008958E3F21F480916E028260F7CF8F3F23
:10274000B9F780916E028460F1CF40917102803FB1
:1027500059F48091720287FF0DC0109272024111EC
:102760000BC010926D0208C0813F81F4809172020B
:1027700018169CF3442381F08091730290917402A7
:10278000892B09F05AC010926C020895823F49F4D7
:1027900047FFF0CF10927102809172028111ECCF4D
:1027A000E0CF833F19F41416ACF3E4CF9091730299
:1027B000893F29F41916F4F610927302DBCF8A3F91
:1027C00019F497FFD7CFF8CF909174028B3F29F47B
:1027D00097FFD0CF10927402CDCF8C3F19F4191609
:1027E000CCF3C8CF9CE0980F953090F4845F990BA0
:1027F00021E030E0B90102C0660F771F8A95E2F749
:10280000CB01809590917002892380937002B2CFA2
:102810008D3F31F480916E028E7F80936E02AACF3D
:102820008E3F21F480916E028D7FF7CF8F3F09F0AC
:10283000A1CF80916E028B7FF0CF08950E94961CED
:102840009C019091710280917202982B21F030933B
:102850006B0220936A029091730280917402982B0C
:1028600021F030936902209368028FE692E00E9483
:10287000EA1A0895A6E0B0E0E0E4F4E10C94C12483
:1028800086E0EFE6F2E0DE01119601900D928A9566
:10289000E1F710927102109272021092730210927C
:1028A00074028B819C81892B81F080916A029091C6
:1028B0006B020E94AE1CAC0190916D02992391F1C4
:1028C0008091080184171506D0F18D819E81892B96
:1028D00091F080916802909169020E94AE1CAC0157
:1028E00090916C02992309F46BC0809104018417C4
:1028F000150608F473C0BE016F5F7F4F8FE692E04C
:102900000E94E61B81110E941E1486E0FE01319692
:10291000AFE6B2E001900D928A95E1F72696E3E0EA
:102920000C94DD24209109018AE0289F9001112454
:102930002417350750F69F5F90936D0202C09F3FAA
:10294000D1F71B81112359F00E94D4129FEF111669
:102950000CF491E0899F802D1124809371021C81D9
:10296000112359F00E94D4129FEF11160CF491E03C
:10297000899F802D1124809372023091710233233C
:1029800009F4A3CF20917202222309F49ECF45EBD4
:102990003403C0011124992359F09093710245EB3F
:1029A000240390011124332339F0309372028DCF28
:1029B00081E080937102F3CF81E08093720285CF32
:1029C000209105018AE0289F9001112424173507E2
:1029D00008F091CF9F5F90936C0202C09F3FD1F7A8
:1029E0001D81112359F00E9412139FEF11160CF450
:1029F00091E0899F802D1124809373021E81112301
:102A000059F00E9412139FEF11160CF491E0899F68
:102A1000802D11248093740230917302332309F4C2
:102A20006ACF20917402222309F465CF45EB340369
:102A3000C0011124992359F09093730245EB2403AC
:102A400090011124332339F03093740254CF81E084
:102A500080937302F3CF81E0809374024CCF86E0C1
:102A6000EFE6F2E0DF011D928A95E9F710926D0220
:102A700010926C0210926E02089583E290E00E9420
:102A80000A25823289F484E290E00E940A25863089
:102A900059F485E290E00E940A2591E0803109F026
:102AA00090E0892F8170089580E0FCCFCF93C82FEC
:102AB0006FEF811162E283E290E00E9418256FEFD0
:102AC000C11166E084E290E00E9418256FEFC11109
:102AD00060E185E290E00E941825CF910895089565
:102AE00086E290E00E940A25682F70E090E080E086
:102AF00008950895CF93C62F0E9479156C2F86E212
:102B000090E00E941825CF91089580E00E9456150C
:102B100060E070E0CB010E947A150E941F180E94AD
:102B2000FC1881E00E94561508950E946F150E94BE
:102B300070150E9479150E943D15811102C00E94F6
:102B400085150895CF93FB01C281CC2309F19C0127
:102B500022513F452031310520F582510E940C1948
:102B6000C0E08C2FCF91089581E00E94160943E0C8
:102B700062E081E00E948A03F3CF81E00E94220993
:102B800043E062E081E00E948A03EBCF82E0F6CF6F
:102B90008031FFE59F0789F381319F45B9F3C1E09B
:102BA000E0CF8031EFE59E07F9F281319F45C9F60C
:102BB00082E0DBCF2FEFFC0120830895EF92FF929C
:102BC0000F931F93CF93DF93EC01062FE881E15021
:102BD000E33108F05DC0F0E0E65AFA4D0C94A5240C
:102BE000198289E08A83602FCE010E94A91DCDB78A
:102BF000DEB7E6E00C94DA248981823069F0833014
:102C000071F08130D9F40E94A21C0E94AB246A8327
:102C10007B838C839D83E7CF0E947015F6CF7E0166
:102C200010E0812F0E947911F701928383831F5F47
:102C3000F2E0EF0EF11C1530A1F7D5CF602FCE01D9
:102C40000E94DA15D0CF89818230C1F76A817B81F9
:102C50008C819D810E94AB240E947A15C4CF4B8148
:102C60006A8189810E94E1179827892798279D8387
:102C70008C83B9CF2C813D813227232732274B818A
:102C80006A8189810E940318AECF0E941F18ABCFC2
:102C90008FEF8883A8CF0E94AD188983A4CF0E94AC
:102CA000AF189827892798279A8389839CCF6B81AF
:102CB00070E089819A81AE014C5F5F4F9827892728
:102CC00098270E94B2188FCF6B8170E089819A811A
:102CD000AE014C5F5F4F9827892798270E94D7182D
:102CE00082CF0E94FC187FCF0E94CE17D6CF6B8177
:102CF00070E089819A81AE014C5F5F4F98278927E8
:102D000098270E9457186FCF6B8170E089819A8154
:102D1000AE014C5F5F4F9827892798270E947B1848
:102D200062CFCF93DF93EC01FB018281882309F40A
:102D300033C1C330FDE5DF07C0F5CA3F9CE5D907C5
:102D400030F49E0122503C4524313105B0F50E94FB
:102D5000E70D9093AB028093AA02C1318CE5D807AE
:102D600009F4EEC008F069C0C930ECE5DE0709F4EB
:102D7000D5C0C8F5C5308CE5D80709F4C7C000F543
:102D8000C330ECE5DE0709F4B9C008F0BBC0C230BF
:102D9000DC4509F4ADC08091AA029091AB020E947B
:102DA000F50D0E949F0880E008C0C136EDE5DE0702
:102DB00071F2C53AFDE5DF0751F2DF91CF91089539
:102DC0008091AA028062C7309CE5D90709F493C0BC
:102DD0008091AA028061C830DC4508F48CC08091E3
:102DE000AA02806488C08091AA028B7FCD30FCE566
:102DF000DF0709F480C098F48091AA028E7FCB305F
:102E00009CE5D90709F477C08091AA028C60CC3088
:102E1000DC4508F470C08091AA028D7F6CC080915F
:102E2000AA028F7ECF30FCE5DF0709F464C008F406
:102E30007BC08091AA028F7D5EC0CD3F9CE5D90703
:102E400009F47AC050F5C531FCE5DF0709F486C006
:102E500098F48091AA02837FC3319CE5D90709F4D5
:102E60004AC008F471C00E949F089091AA02892F5D
:102E700097FB87F980583FC0CB3FFCE5DF0709F49B
:102E800049C008F055C08091AB028160CA3FDC4563
:102E900009F081CF8093AB027ECFC130EDE5DE0734
:102EA00009F468C0A8F4CF3F8CE5D80709F452C0F4
:102EB0008091AB028360C115DD4560F38091AB0268
:102EC000982F909591708E7F892B90FB81F9E2CF9E
:102ED000C136EDE5DE0709F451C0C53AFDE5DF076F
:102EE00009F453C0C230DD4509F055CF80E043C03E
:102EF0008091AA0281608093AA024DCF8091AA029C
:102F00008260F9CF8091AA028460F5CF8091AA02F5
:102F10008860F1CF8091AB028260BCCF0E949F0895
:102F20008091AA028068E7CF8091AA02877FE3CFD1
:102F30008091AB028E7FAECF8091AB028D7FAACF06
:102F40008091AA028F7BD7CF0E949F088091AA020E
:102F50008F77D1CF8091AB028C7F9CCF8091AA02DA
:102F600082FB992790F921E0922790FB82F990FB50
:102F700083F9C1CF81E00E94810E0DCF9091AA020A
:102F8000892F8F7E94FF8061B6CF9091AA02892FFE
:102F90008E7F90FF8160AFCF81E00FCF84E00895F6
:102FA00090E2699FB001112450E0440F551F640F57
:102FB000751F90EA899F600D711D1124CB018796C2
:102FC00008950F931F93CF93DF938430C8F4653037
:102FD000B8F44031A8F40E94D0178C010E940A2551
:102FE000C82FD0E0DC2FCC27C80101960E940A250B
:102FF0009E01282BC901DF91CF911F910F91089558
:1030000090E080E0F8CF0F931F93CF93DF93122FC0
:10301000032F843078F4653068F4403158F40E940E
:10302000D017EC01602F0E941825612FCE01019668
:103030000E941825DF91CF911F910F910895AF92B3
:10304000BF92CF92DF92EF92FF921F93CF93DF93C5
:103050008CEAC82E80E0D82ED0E07601C0E014C003
:10306000F50125913491412F6C2F8D2F0E9403186B
:1030700082E0A80EB11C1F5F103191F780E2E80ECC
:10308000F11CCF5FC53019F0570110E0E9CFDF5FC9
:1030900080EAC80ED11CD43001F7DF91CF911F9187
:1030A000FF90EF90DF90CF90BF90AF900895EF9298
:1030B000FF920F931F93CF93DF93EC018A017C0162
:1030C000E60EF71ECE018796CE15DF0529F4CDB7A3
:1030D000DEB7E6E00C94DA24C03822E0D20740F4F0
:1030E0000E940A25F80180830F5F1F4F2196EACFC7
:1030F000F8011082F9CFB0E0A0E0E1E8F8E10C942B
:10310000BC247C016A018C01060F171FEC01CE0163
:103110008796C017D10729F4CDB7DEB7E8E00C9445
:10312000D824C03822E0D20740F4FE01EE19FF098E
:10313000EC0DFD1D60810E9418252196E8CF462FD9
:10314000843040F4753030F4603120F4672F0E94F1
:10315000E117089590E080E0089580E1089589E501
:1031600091E00895EF92FF920F931F93CF93DF9317
:10317000EC018A017C01E60EF71ECE0189559D4FB8
:10318000CE15DF0529F4CDB7DEB7E6E00C94DA24DE
:10319000C93521E0D20740F40E940A25F801808356
:1031A0000F5F1F4F2196E9CFF8011082F9CFB0E0F1
:1031B000A0E0EDEDF8E10C94BC247C016A018C01E7
:1031C000060F171FEC01CE0189559D4FC017D1077F
:1031D00029F4CDB7DEB7E8E00C94D824C93521E056
:1031E000D20740F4FE01EE19FF09EC0DFD1D6081D0
:1031F0000E9418252196E7CFCF93DF93C7EAD2E04C
:1032000060E0CE010E9418252196C11584E0D80700
:10321000B9F7DF91CF910895A4E0B0E0E2E1F9E1E0
:103220000C94BD24F82E8FE08F1548F18FEF93E0BA
:103230000E940A25811123C007EA12E0F11023C081
:1032400019821A821B821C82DD24D39478018FEFAD
:10325000E81AF80AC8010E940A2589831A8288237D
:1032600071F09FEF980F9330D8F48A83D9820E5F64
:103270001F4FC7010E940A258B83811112C024961B
:10328000E7E00C94D924011584E01807C1F3C801C4
:103290000E940A25811101C0FA940F5F1F4FCECF03
:1032A0008701CE0101960E94DA04D0CF8FE891E029
:1032B0000197F1F700C00000089581E0089581E0D2
:1032C000809376028098889A8198899A0E945619EC
:1032D0002091760248E752E0FA018E2F841B821774
:1032E00008F008958FB18170799904C090E0892B1E
:1032F0008193F3CF92E0FBCFB0E0A0E0E2E8F9E108
:103300000C94BC24F12CE12C84E0C82ED12C8091AB
:103310007602F81630F08E2DCDB7DEB7E8E00C94CB
:10332000D8240F2D10E0EFB1E170799940C080E012
:103330008E2BD801A858BD4FEC919E2F93709817F3
:10334000A1F1EE0FEE0FE82BEC93EF70F0E0E257F7
:10335000FE4FE801C958DD4F80819881890F88832D
:1033600020E084305CF0F801EB58FD4F80818F5FE6
:10337000808360E08F2D0E940A0321E088818D3FC9
:103380005CF4F801EB58FD4F80818150808361E04F
:103390008F2D0E940A0321E08881082E000C990BD2
:1033A000B6010E9491248883E22AF394B0CF82E090
:1033B000BFCFCF93DF93EB0186319C4511F50E947F
:1033C000E30C9A81992399F08A7A91E009F490E0CC
:1033D00090937902811109C089E20E94BB0C0E947E
:1033E000240D80E0DF91CF91089585E3F6CF8091A1
:1033F0007902811104C089E20E94C30CF0CF85E3F9
:10340000FBCF81E0EFCF0F931F93CF93DF93C42FB8
:10341000D22FFC0182818823C9F040937C020E9454
:10342000961C90937B0280937A0280E28C0F883006
:1034300040F4C77081E001C0880FCA95EAF70E9486
:103440004B06DF91CF911F910F91089510917C024F
:10345000141332C080917A0290917B020E94AE1CBC
:10346000883C910548F5C0E2CD0F1D17B9F080E208
:10347000810F883040F4177081E001C0880F1A95E1
:10348000EAF70E945206C83048F481E09D2F9770F9
:1034900001C0880F9A95EAF70E944B06802F0E9480
:1034A0004206C83070F6D77081E001C0880FDA9507
:1034B000EAF70E945206C5CF80E28C0F883008F6EA
:1034C000C77081E001C0880FCA95EAF7F2CF0F9369
:1034D0009C01CB01233F4CE5340759F1A8F4283D6A
:1034E000FCE53F0701F1293D4CE53407D1F1273DCB
:1034F0003C4591F406E221EE41EE67ED7CE50E9449
:10350000031A80E00F910895253FFCE53F07E9F09D
:10351000B0F0263F3C45F9F0FC018281882339F167
:1035200010927C02EFCF07E225EE45EE68ED7CE5D8
:10353000E6CF06E221EE40EE63EF7CE5E0CF07E266
:1035400025EE44EE64EF7CE5DACF06E221EE42EEB2
:1035500065EF7CE5D4CF07E225EE46EE66EF7CE52D
:10356000CECF08E221E045EE69ED7CE5C8CF81E0F1
:10357000C9CF9093AF018093AE01089590938202DA
:10358000809381020895E0918102F0918202309748
:1035900029F00190F081E02D0995089580E00895CB
:1035A000E0918102F0918202309799F0209116010A
:1035B000222359F02091AA0227FF07C0DC012C9199
:1035C00011962C93119726E02C930280F381E02D25
:1035D00009950895E0918102F0918202309739F0C7
:1035E00022E0DC012C930480F581E02D09950895FB
:1035F00020917F02309180022817390771F0909353
:10360000800280937F02E0918102F09182023097E4
:1036100021F00680F781E02D0995089520917D0223
:1036200030917E022817390771F090937E028093C3
:103630007D02E0918102F0918202309721F00084B6
:10364000F185E02D09950895FC01329680911601CF
:10365000882321F08091AA029EE187FF96E080E016
:10366000915008F4089521912223D1F38F5FF8CF70
:10367000662301F1209116012223F1F02091AA0284
:1036800027FF1AC0462F4695469546954E3190F431
:10369000677021E030E002C0220F331F6A95E2F725
:1036A000840F911DFC01828190E02823392381E061
:1036B000232B69F480E00895FC013296089621914D
:1036C000261721F0E817F907D1F7F4CF81E0089524
:1036D0009C01FC0132969FEF80E04191461751F02A
:1036E0009F3F19F4411101C0982F8F5F8630A9F7D1
:1036F0009F3F09F40895290F311D97FD3A95F9016F
:1037000062830895FC01329608962191261303C026
:10371000DF0111971C92E817F907B9F70895E62F12
:10372000E695E695E695EE3168F4E80FF92FF11D80
:10373000677021E030E001C0220F6A95EAF78281CC
:10374000822B82830895E62FE695E695E695EE3185
:1037500070F4E80FF92FF11D677021E030E001C02F
:10376000220F6A95EAF72095828128232283089503
:1037700020911601222339F02091AA0227FF03C0CD
:103780000E948F1B08950E94681B089520911601C6
:10379000222339F02091AA0227FF03C00E94A31B15
:1037A00008950E94821B0895FC01329680911601B3
:1037B000882351F08091AA0287FF06C08EE1DF01C5
:1037C0001D928A95E9F7089586E0F9CF46E050E02A
:1037D0000E94FD2421E0892B09F420E0822F089526
:1037E00008950E94F01B0895811106C081E0809326
:1037F00083020E94F11B089582E0F9CF83E0809359
:1038000083020E94F11B08950E94F41B089581E039
:10381000809383020E94F11B08950E94071C089563
:10382000089508950E94111C0895089508950E9416
:10383000101C0895CF930E94151C0E9444120E94F0
:10384000161CC0E08C2F0E947911892B31F4CF5FB8
:10385000C530C1F780E0CF91089581E0FCCF85B7F6
:10386000806885BF85B7806885BF08951F921FB6A1
:103870001F9211248F939F93AF93BF9380918402E3
:10388000811113C08091C0029091C102A091C20227
:10389000B091C3024196A11DB11D8093C0029093C7
:1038A000C102A093C202B093C302BF91AF919F9196
:1038B0008F911F901FBE1F9018958091C802843071
:1038C00031F10E940D041092840288E190E020E41E
:1038D0000FB6F894A895809360000FBE2093600007
:1038E00083B7817F846083BF83B7816083BF78940F
:1038F000889583B78E7F83BF0FB6F894A895809183
:103900006000886180936000109260000FBE08958F
:103910000E949F080E941204089582E084BD93E0F3
:1039200095BD9AEF97BD80936E0008952FB7F894D8
:103930008091C0029091C102A091C202B091C302D5
:103940002FBF08952FB7F8946091C0027091C10203
:103950008091C2029091C3022FBF08959C014FB77E
:10396000F8948091C0029091C102A091C202B091DE
:10397000C3024FBF821B930B089578941F921FB60A
:103980001F9211248F939F93AF93BF938091C00296
:103990009091C102A091C202B091C3020196A11DF3
:1039A000B11D8093C0029093C102A093C202B09354
:1039B000C302BF91AF919F918F911F901FBE1F9027
:1039C000189581E08093E00080E28093D800109207
:1039D000C9008FE19EE40197F1F700C0000087E085
:1039E00090EBDC018093D1029093D202A093D3029A
:1039F000B093D40288E19CE00FB6F894A895809328
:103A000060000FBE90936000FFCF88E19CE00FB68E
:103A1000F894A895809360000FBE90936000FFCF4C
:103A20008091A802089508959C0184E08093E900A4
:103A30009FEF8091E800915085FD06C085ED8A9545
:103A4000F1F700009111F5CF8091E80085FF0CC0DF
:103A500050E040E066E070E0C9010E94BB1F809129
:103A6000E8008E778093E8000895CF93DF93EC0110
:103A7000809116018823B1F18091AA0287FF32C09C
:103A800060E284E08093E9008FEF9091E80081503C
:103A900095FD06C095ED9A95F1F700008111F5CFDF
:103AA0008091E80085FF1BC08091160170E050E016
:103AB00040E0811104C050E040E068E070E0CE01D9
:103AC0000E94BB1F8091E8008E778093E80080E21F
:103AD000FE01A8E8B2E001900D928A95E1F7DF912E
:103AE000CF91089568E081E0CDCF809385027093F7
:103AF0008702609386028091C8028430F9F4809333
:103B0000E9008FEF9091E800815095FD06C095ED9A
:103B10009A95F1F700008111F5CF8091E80085FFBB
:103B20000DC050E040E063E070E085E892E00E9464
:103B3000BB1F8091E8008E778093E8000895BC0158
:103B400084E00E94751D0895BC0183E00E94751DEC
:103B50000895CF93FC01603221F58091C802843032
:103B600001F5C091E900CF702091EC00922F917087
:103B700020FD90E8C92B82E08093E9008091E80065
:103B800080FF0CC050E040E060E270E0CF010E9496
:103B9000BB1F8091E8008E778093E800CF70C093C0
:103BA000E900CF9108958091C702811109C00E9458
:103BB0009A210E94F7218091E20084608093E200C4
:103BC00008951092C70208950E94071C08956091FD
:103BD000C40281E0611101C080E00E94FE1B0895D3
:103BE0009091C80281E0943009F080E06091C402B5
:103BF0000E94041C089542E061EC81E00E941621BD
:103C000042E261EC84E00E94162142E261EC82E033
:103C10000E94162142E260EC83E00E9416219091FE
:103C2000C80281E0943009F080E06091C4020E94F3
:103C3000F41B08958091CA02833009F463C030F404
:103C40008130E1F1823009F4A0C008958A3009F48E
:103C50008CC08B3009F471C0893009F052C080915A
:103C6000C902813209F04DC08091CD029091CE02FF
:103C7000009719F0029709F044C08091E800877F0F
:103C80008093E8008091E80082FF37C09091F300B4
:103C90008091F200029731F48091F100813011F0AF
:103CA000863021F48091F1008093A8028091E80091
:103CB0008B778093E8000E944A2123C08091C9023B
:103CC000813AF9F48091E800877F8093E800809141
:103CD000CD029091CE02892B61F460E288E892E0F7
:103CE00070E00E9459208091E8008B778093E80073
:103CF000089560E090E080E0F3CF8091C8028111E8
:103D0000C1CF08958091C902813AD9F78091CD023F
:103D10009091CE02892BA9F78091E800877F80934C
:103D2000E8008091E80080FFFCCF8091160180932D
:103D3000F1008091E8008E77BCCF8091C90281327A
:103D400001F78091CD029091CE02892BD1F680911E
:103D5000E800877F8093E8000E944A218091CB028F
:103D6000809316010E949F0808958091C9028132B4
:103D700041F68091E800877F8093E8000E944A2105
:103D80008091CC028093A90208958091C902813A62
:103D900009F0B7CF8091E800877F8093E800809199
:103DA000E80080FFFCCF8091A902C1CF84B7877F54
:103DB00084BF0FB6F894A8958091600088618093C5
:103DC0006000109260000FBE80E890E00FB6F8949B
:103DD00080936100909361000FBE0E940D1C0895B6
:103DE0000E949A210E94F721E2EEF0E08081846037
:103DF000808378940E94762408958AE091E00E945E
:103E0000BE1A08958091C802853031F48091C802AD
:103E1000853019F00E94881C08950E945D1C8091D5
:103E2000C602882399F30E941A1C882379F30E9402
:103E3000A51F0E949F08EACFA0E2B0E0E2E2FFE106
:103E40000C94C2248091C802843009F583E08093E9
:103E5000E9008091E80082FF1AC08091E80090E0BC
:103E600085FF09C050E040E060E270E0CE010196BD
:103E70000E940A2091E08091E8008B778093E8000F
:103E8000992329F060E2CE0101960E94DE15A096EA
:103E9000E2E00C94DE240E944E1F0895292F332760
:103EA0002330310521F168F42130310509F443C094
:103EB0002230310509F444C090E080E030E020E099
:103EC00026C02132310551F122323105A9F7633084
:103ED000710590F7FB01EE0FFF1FEF55FE4F20819C
:103EE000318162567E4FFB01808190E010C099279E
:103EF0008130910581F0009729F00297E9F6ECED09
:103F0000F3E002C0E6E1F4E0849190E09F01FA0161
:103F1000318320830895EAEEF3E0F6CF6330710534
:103F200058F6660F771FFB01E955FE4F208131815E
:103F300089E090E0ECCF82E190E025E734E0E7CF44
:103F40008BE590E02AE134E0E2CF80E189BD82E1B7
:103F500089BD09B400FEFDCF8091D8008F7D80938C
:103F6000D8008091E00082608093E0008091E000C2
:103F700081FDFCCF0895AF92BF92CF92DF92FF9266
:103F80000F931F93CF93DF936C01EB018A010E9483
:103F90006921F82E811123C00115110539F0F801AE
:103FA00080819181C81BD90BC80ED91EB12CA12CC0
:103FB0002097A9F08091E80085FD22C08091E8005B
:103FC0008E778093E80001151105A1F0F80180813A
:103FD0009181A80EB91EB182A08285E0F82E8F2DA6
:103FE000DF91CF911F910F91FF90DF90CF90BF9005
:103FF000AF9008950E9469218823D1F2F82EEFCF67
:10400000F60181916F018093F1002197FFEFAF1AC4
:10401000BF0ACECFAF92BF92CF92DF92FF920F93A3
:104020001F93CF93DF936C01EB018A010E946921FA
:10403000F82E811123C00115110539F0F801808196
:104040009181C81BD90BC80ED91EB12CA12C209769
:10405000A9F08091E80085FD22C08091E8008B776F
:104060008093E80001151105A1F0F801808191818C
:10407000A80EB91EB182A08285E0F82E8F2DDF91A7
:10408000CF911F910F91FF90DF90CF90BF90AF9095
:1040900008950E9469218823D1F2F82EEFCF8091F4
:1040A000F100F60181936F012197FFEFAF1ABF0A6C
:1040B000CECFFC018091CF029091D0028617970756
:1040C000A0F06115710529F49091E8009E77909316
:1040D000E80090E06115710551F4911108C08091DC
:1040E000E80082FF34C080E00895BC01F2CF8091E7
:1040F000C8028823C1F18530C1F18091E80083FDB9
:1041000030C08091E80082FDEACF8091E80080FF16
:10411000E1CF8091F3002091F200382F61157105F5
:1041200019F02830310558F091E02830310509F0B8
:1041300090E02091E8002E772093E800CBCF81918A
:104140008093F100615071092F5F3F4FE7CF80915D
:10415000C802882341F0853041F08091E80083FF58
:10416000BECF81E0089582E0089583E00895FC01C8
:104170008091CF029091D00286179707A0F0611529
:10418000710529F48091E8008E778093E80090E033
:104190006115710551F4911108C08091E80082FF0A
:1041A00035C080E00895BC01F2CF8091C802882319
:1041B000C9F18530C9F18091E80083FD31C080915B
:1041C000E80082FDEACF8091E80080FFE1CF809196
:1041D000F3002091F200382F6115710519F0283095
:1041E000310558F091E02830310509F090E08091D8
:1041F000E8008E778093E800CBCF84918093F10024
:104200003196615071092F5F3F4FE6CF8091C80210
:10421000882341F0853041F08091E80083FFBDCFD5
:1042200081E0089582E0089583E00895982F973003
:1042300028F08F708093E90081E008959093E90061
:10424000242F762F50E0981731F07091EC002091D8
:10425000ED005091F00021FD02C09F5FE8CF30914A
:10426000EB003E7F3093EB003091ED003D7F3093CB
:10427000ED003091EB0031603093EB007093EC0077
:104280002093ED005093F0002091EE0027FDE5CF44
:1042900080E008958091C90287FF13C08091E800F3
:1042A00082FF06C08091E8008B778093E80004C00D
:1042B0008091C8028111F2CF08958091C8028823AD
:1042C000D9F38091E80080FFF8CF8091E8008E77E5
:1042D000ECCF2091E4003091E50095E6A901209112
:1042E000EC00822F817020FF06C08091E80080FFE3
:1042F00006C080E008952091E80022FD1AC0809158
:10430000C802882389F0853089F08091EB0085FD13
:104310000FC02091E4003091E50042175307F9F2F5
:104320009150E1F684E0089582E0089583E00895D5
:1043300081E008950E9409220E941122E0EEF0E03F
:10434000808181608083E8EDF0E080818F778083D9
:1043500019BCA7EDB0E08C918E7F8C9380818F7E0D
:1043600080831092C70208950F931F93CF93DF931A
:104370000E9409220E941122C8EDD0E088818F7727
:10438000888388818068888388818F7D888319BC31
:104390001092C8021092C4021092C6021092C50276
:1043A00000EE10E0F80180818B7F8083888181603E
:1043B000888342E060E080E00E941621E1EEF0E0B8
:1043C00080818E7F8083E2EEF0E080818160808357
:1043D000808188608083F80180818E7F80838881DE
:1043E00080618883DF91CF911F910F910895E8ED4F
:1043F000F0E080818F7E8083E7EDF0E08081816056
:10440000808384E082BF81E08093C7020E94B42150
:104410000895E8EDF0E080818E7F80831092E200C5
:1044200008951092DA001092E10008951F920F9201
:104430000FB60F9211242F933F934F935F936F9377
:104440007F938F939F93AF93BF93EF93FF9380914D
:10445000E10082FF0BC08091E20082FF07C08091E3
:10446000E1008B7F8093E1000E9475248091DA0047
:1044700080FF19C08091D80080FF15C08091DA00BC
:104480008E7F8093DA008091D90080FF96C080E112
:1044900089BD82E189BD09B400FEFDCF81E0809332
:1044A000C8020E94D31D8091E10080FF19C0809155
:1044B000E20080FF15C08091E2008E7F8093E200D1
:1044C0008091E20080618093E2008091D800806258
:1044D0008093D80019BC85E08093C8020E94E71D34
:1044E0008091E10084FF2BC08091E20084FF27C00F
:1044F00080E189BD82E189BD89B5982F917080FFE7
:10450000FBCF8091D8008F7D8093D8008091E1000F
:104510008F7E8093E1008091E2008F7E8093E200A5
:104520008091E20081608093E2008091C402882340
:1045300009F449C084E08093C8020E94F01D809174
:10454000E10083FF29C08091E20083FF25C08091B4
:10455000E100877F8093E10082E08093C80210929F
:10456000C4028091E1008E7F8093E1008091E2009F
:104570008E7F8093E2008091E20080618093E20070
:1045800042E060E080E00E9416218091F0008860A7
:104590008093F0000E94E41DFF91EF91BF91AF91D5
:1045A0009F918F917F916F915F914F913F912F914B
:1045B0000F900FBE0F901F90189519BC1092C80253
:1045C0000E94E11D70CF8091E30087FD93E09093FE
:1045D000C802B3CF1F920F920FB60F9211242F93E0
:1045E0003F934F935F936F937F938F939F93AF937B
:1045F000BF93CF93DF93EF93FF93D091E900DF70E8
:104600008091EC00C82FC17080FDC0E81092E900D5
:104610008091F000877F8093F00078940E942E2391
:104620001092E9008091F00088608093F000CD2B1B
:10463000CF70C093E900FF91EF91DF91CF91BF91CF
:10464000AF919F918F917F916F915F914F913F912A
:104650002F910F900FBE0F901F901895AAE2B0E017
:10466000E4E3F3E20C94C12489EC92E02091F100A0
:10467000FC012193CF01F2E0813D9F07B9F70E9431
:104680001A1E8091E80083FF1EC18091C90290919B
:10469000CA029A3008F017C1E92FF0E0E359FA4D49
:1046A0000C94A524803899F0823809F00CC18091CF
:1046B000CD028F70873008F006C18093E9008091A9
:1046C000EB0085FB882780F91092E90006C08091F5
:1046D000C5029091C602911182609091E800977F87
:1046E0009093E8008093F1001092F1008091E8002F
:1046F0008E77E5C0882309F4D3C0823009F0E3C087
:104700008091CB028111D6C08091CD028F702FEFA6
:10471000280F263008F0D7C08093E9002091EB00E5
:1047200020FFC8C0933031F48091EB008062809309
:10473000EB00C0C09091EB0090619093EB0021E002
:1047400030E001C0220F8A95EAF72093EA00109228
:10475000EA008091EB008860EACF8111B4C010912B
:10476000CB021F778091E3008078812B8093E30058
:104770008091E800877F8093E8000E944A21809121
:10478000E80080FFFCCF8091E30080688093E30025
:1047900082E0111183E08093C80295C08058823076
:1047A00008F091C08091CB029091CC028C3D23E027
:1047B0009207A1F583E08A838AE289834FB7F89450
:1047C000DE01139620E03EE051E2E32FF0E050934B
:1047D0005700E49120FF03C0E295EF703F5FEF7058
:1047E0008E2F90E0EA30C0F0C7968D939D932F5F97
:1047F000243159F74FBF8091E800877F8093E8000C
:104800006AE270E0CE0101960E9459208091E80092
:104810008B778093E80057C0C096E7CF6091CD02B8
:104820007091CE02AE014F5F5F4F0E944B1FBC01E3
:10483000892B09F448C09091E800977F9093E80095
:1048400089819A810E94B720E1CF8038E1F580917B
:10485000E800877F8093E8008091C4028093F10094
:1048600045CF811130C09091CB02923060F580919C
:10487000E800877F8093E8009093C4020E944A2159
:104880008091C402882311F084E005C08091E30088
:1048900087FDFACF81E08093C8020E94FB1D13C000
:1048A0008091CB02813079F481E0933009F080E08F
:1048B0008093C6021092E9008091E800877F809380
:1048C000E8000E944A218091E80083FF0AC080919D
:1048D000E800877F8093E8008091EB0080628093FE
:1048E000EB00AA96E3E00C94DD240895CF93809129
:1048F000C8028823A1F0C091E900CF709091EC002C
:10490000892F817090FD80E8C82B1092E90080917A
:10491000E80083FD0E942E23CF70C093E900CF9161
:10492000089597FB072E16F4009407D077FD09D061
:104930000E94E92407FC05D03EF4909581959F4F95
:104940000895709561957F4F0895EE0FFF1F0590B4
:10495000F491E02D099469279627692778278727FE
:10496000782708952F923F924F925F926F927F9295
:104970008F929F92AF92BF92CF92DF92EF92FF926F
:104980000F931F93CF93DF93CDB7DEB7CA1BDB0B1B
:104990000FB6F894DEBF0FBECDBF09942A883988C0
:1049A00048885F846E847D848C849B84AA84B984C7
:1049B000C884DF80EE80FD800C811B81AA81B981D3
:1049C000CE0FD11D0FB6F894DEBF0FBECDBFED01E7
:1049D0000895AA1BBB1B51E107C0AA1FBB1FA61746
:1049E000B70710F0A61BB70B881F991F5A95A9F798
:1049F00080959095BC01CD010895FB01DC0104C0B8
:104A00008D910190801921F441505040C8F7881BC6
:104A1000990B0895F999FECF92BD81BDF89A992717
:104A200080B50895A8E1B0E042E050E00C943E2546
:104A3000262FF999FECF92BD81BDF89A019700B457
:104A4000021639F01FBA20BD0FB6F894FA9AF99AF7
:104A50000FBE08950396272F0E9419250E9418253E
:104A6000252F0E941925242F0C9419250196272FF4
:104A70000E9419250C941825DC01CB01FC01F99941
:104A8000FECF06C0F2BDE1BDF89A319600B40D929A
:104A900041505040B8F70895F894FFCF940694061B
:104AA000C506C50652076E07F406F4067907E00747
:104AB000EF07EF07F015FC1523162F163A164516CB
:104AC000481648164816481648164B164F165716DD
:104AD0006416711674167716841652237A2363248B
:0E4AE0007A236324AD23CE23632425243124BE
:104AEE002C02280850011E0A1401101D351D141D1C
:104AFE00A41D9F1D131D01E200E900EA00B500B6DA
:104B0E0000B700CD008301CC008A019201940121EF
:104B1E0002230224022502260227022A02B300B42F
:104B2E00006F007000818283E200E900EA00B500A8
:104B3E00B600B700CD008301CC008A01920194012A
:104B4E002102230224022502260227022A02B30092
:104B5E00B4006F00700081828393959496973435DC
:104B6E00366667F7F6F5F43031C63790919200FF4E
:104B7E000100010000FFFF0000010001FF004022C4
:0E4B8E00B65F058704A9042C044504650400E5
:00000001FF
